{
  "_format": "hh-sol-artifact-1",
  "contractName": "YSTRAToken",
  "sourceName": "contracts/YSTRAToken.sol",
  "abi": [
    {
      "inputs": [
        {
          "internalType": "uint96",
          "name": "_royaltyFeesInBips",
          "type": "uint96"
        },
        {
          "internalType": "string",
          "name": "_contractURI",
          "type": "string"
        }
      ],
      "stateMutability": "nonpayable",
      "type": "constructor"
    },
    {
      "anonymous": false,
      "inputs": [
        {
          "indexed": true,
          "internalType": "address",
          "name": "owner",
          "type": "address"
        },
        {
          "indexed": true,
          "internalType": "address",
          "name": "approved",
          "type": "address"
        },
        {
          "indexed": true,
          "internalType": "uint256",
          "name": "tokenId",
          "type": "uint256"
        }
      ],
      "name": "Approval",
      "type": "event"
    },
    {
      "anonymous": false,
      "inputs": [
        {
          "indexed": true,
          "internalType": "address",
          "name": "owner",
          "type": "address"
        },
        {
          "indexed": true,
          "internalType": "address",
          "name": "operator",
          "type": "address"
        },
        {
          "indexed": false,
          "internalType": "bool",
          "name": "approved",
          "type": "bool"
        }
      ],
      "name": "ApprovalForAll",
      "type": "event"
    },
    {
      "anonymous": false,
      "inputs": [
        {
          "indexed": true,
          "internalType": "address",
          "name": "previousOwner",
          "type": "address"
        },
        {
          "indexed": true,
          "internalType": "address",
          "name": "newOwner",
          "type": "address"
        }
      ],
      "name": "OwnershipTransferred",
      "type": "event"
    },
    {
      "anonymous": false,
      "inputs": [
        {
          "indexed": false,
          "internalType": "address",
          "name": "account",
          "type": "address"
        }
      ],
      "name": "Paused",
      "type": "event"
    },
    {
      "anonymous": false,
      "inputs": [
        {
          "indexed": true,
          "internalType": "address",
          "name": "from",
          "type": "address"
        },
        {
          "indexed": true,
          "internalType": "address",
          "name": "to",
          "type": "address"
        },
        {
          "indexed": true,
          "internalType": "uint256",
          "name": "tokenId",
          "type": "uint256"
        }
      ],
      "name": "Transfer",
      "type": "event"
    },
    {
      "anonymous": false,
      "inputs": [
        {
          "indexed": false,
          "internalType": "address",
          "name": "account",
          "type": "address"
        }
      ],
      "name": "Unpaused",
      "type": "event"
    },
    {
      "inputs": [
        {
          "internalType": "address",
          "name": "to",
          "type": "address"
        },
        {
          "internalType": "uint256",
          "name": "tokenId",
          "type": "uint256"
        }
      ],
      "name": "approve",
      "outputs": [],
      "stateMutability": "nonpayable",
      "type": "function"
    },
    {
      "inputs": [
        {
          "internalType": "address",
          "name": "owner",
          "type": "address"
        }
      ],
      "name": "balanceOf",
      "outputs": [
        {
          "internalType": "uint256",
          "name": "",
          "type": "uint256"
        }
      ],
      "stateMutability": "view",
      "type": "function"
    },
    {
      "inputs": [],
      "name": "baseTokenURI",
      "outputs": [
        {
          "internalType": "string",
          "name": "",
          "type": "string"
        }
      ],
      "stateMutability": "view",
      "type": "function"
    },
    {
      "inputs": [
        {
          "internalType": "uint256",
          "name": "tokenId",
          "type": "uint256"
        }
      ],
      "name": "burn",
      "outputs": [],
      "stateMutability": "nonpayable",
      "type": "function"
    },
    {
      "inputs": [],
      "name": "contractURI",
      "outputs": [
        {
          "internalType": "string",
          "name": "",
          "type": "string"
        }
      ],
      "stateMutability": "view",
      "type": "function"
    },
    {
      "inputs": [
        {
          "internalType": "uint256",
          "name": "tokenId",
          "type": "uint256"
        }
      ],
      "name": "getApproved",
      "outputs": [
        {
          "internalType": "address",
          "name": "",
          "type": "address"
        }
      ],
      "stateMutability": "view",
      "type": "function"
    },
    {
      "inputs": [
        {
          "internalType": "address",
          "name": "owner",
          "type": "address"
        },
        {
          "internalType": "address",
          "name": "operator",
          "type": "address"
        }
      ],
      "name": "isApprovedForAll",
      "outputs": [
        {
          "internalType": "bool",
          "name": "",
          "type": "bool"
        }
      ],
      "stateMutability": "view",
      "type": "function"
    },
    {
      "inputs": [],
      "name": "name",
      "outputs": [
        {
          "internalType": "string",
          "name": "",
          "type": "string"
        }
      ],
      "stateMutability": "view",
      "type": "function"
    },
    {
      "inputs": [],
      "name": "owner",
      "outputs": [
        {
          "internalType": "address",
          "name": "",
          "type": "address"
        }
      ],
      "stateMutability": "view",
      "type": "function"
    },
    {
      "inputs": [
        {
          "internalType": "uint256",
          "name": "tokenId",
          "type": "uint256"
        }
      ],
      "name": "ownerOf",
      "outputs": [
        {
          "internalType": "address",
          "name": "",
          "type": "address"
        }
      ],
      "stateMutability": "view",
      "type": "function"
    },
    {
      "inputs": [],
      "name": "pause",
      "outputs": [],
      "stateMutability": "nonpayable",
      "type": "function"
    },
    {
      "inputs": [],
      "name": "paused",
      "outputs": [
        {
          "internalType": "bool",
          "name": "",
          "type": "bool"
        }
      ],
      "stateMutability": "view",
      "type": "function"
    },
    {
      "inputs": [],
      "name": "renounceOwnership",
      "outputs": [],
      "stateMutability": "nonpayable",
      "type": "function"
    },
    {
      "inputs": [
        {
          "internalType": "uint256",
          "name": "_tokenId",
          "type": "uint256"
        },
        {
          "internalType": "uint256",
          "name": "_salePrice",
          "type": "uint256"
        }
      ],
      "name": "royaltyInfo",
      "outputs": [
        {
          "internalType": "address",
          "name": "",
          "type": "address"
        },
        {
          "internalType": "uint256",
          "name": "",
          "type": "uint256"
        }
      ],
      "stateMutability": "view",
      "type": "function"
    },
    {
      "inputs": [
        {
          "internalType": "address",
          "name": "to",
          "type": "address"
        },
        {
          "internalType": "string",
          "name": "uri",
          "type": "string"
        }
      ],
      "name": "safeMint",
      "outputs": [],
      "stateMutability": "nonpayable",
      "type": "function"
    },
    {
      "inputs": [
        {
          "internalType": "address",
          "name": "from",
          "type": "address"
        },
        {
          "internalType": "address",
          "name": "to",
          "type": "address"
        },
        {
          "internalType": "uint256",
          "name": "tokenId",
          "type": "uint256"
        }
      ],
      "name": "safeTransferFrom",
      "outputs": [],
      "stateMutability": "nonpayable",
      "type": "function"
    },
    {
      "inputs": [
        {
          "internalType": "address",
          "name": "from",
          "type": "address"
        },
        {
          "internalType": "address",
          "name": "to",
          "type": "address"
        },
        {
          "internalType": "uint256",
          "name": "tokenId",
          "type": "uint256"
        },
        {
          "internalType": "bytes",
          "name": "data",
          "type": "bytes"
        }
      ],
      "name": "safeTransferFrom",
      "outputs": [],
      "stateMutability": "nonpayable",
      "type": "function"
    },
    {
      "inputs": [
        {
          "internalType": "address",
          "name": "operator",
          "type": "address"
        },
        {
          "internalType": "bool",
          "name": "approved",
          "type": "bool"
        }
      ],
      "name": "setApprovalForAll",
      "outputs": [],
      "stateMutability": "nonpayable",
      "type": "function"
    },
    {
      "inputs": [
        {
          "internalType": "string",
          "name": "baseURI_",
          "type": "string"
        }
      ],
      "name": "setBaseURI",
      "outputs": [],
      "stateMutability": "nonpayable",
      "type": "function"
    },
    {
      "inputs": [
        {
          "internalType": "string",
          "name": "_contractURI",
          "type": "string"
        }
      ],
      "name": "setContractURI",
      "outputs": [],
      "stateMutability": "nonpayable",
      "type": "function"
    },
    {
      "inputs": [
        {
          "internalType": "address",
          "name": "_receiver",
          "type": "address"
        },
        {
          "internalType": "uint96",
          "name": "_royaltyFeesInBips",
          "type": "uint96"
        }
      ],
      "name": "setRoyaltyInfo",
      "outputs": [],
      "stateMutability": "nonpayable",
      "type": "function"
    },
    {
      "inputs": [
        {
          "internalType": "bytes4",
          "name": "interfaceId",
          "type": "bytes4"
        }
      ],
      "name": "supportsInterface",
      "outputs": [
        {
          "internalType": "bool",
          "name": "",
          "type": "bool"
        }
      ],
      "stateMutability": "view",
      "type": "function"
    },
    {
      "inputs": [],
      "name": "symbol",
      "outputs": [
        {
          "internalType": "string",
          "name": "",
          "type": "string"
        }
      ],
      "stateMutability": "view",
      "type": "function"
    },
    {
      "inputs": [
        {
          "internalType": "uint256",
          "name": "index",
          "type": "uint256"
        }
      ],
      "name": "tokenByIndex",
      "outputs": [
        {
          "internalType": "uint256",
          "name": "",
          "type": "uint256"
        }
      ],
      "stateMutability": "view",
      "type": "function"
    },
    {
      "inputs": [
        {
          "internalType": "address",
          "name": "owner",
          "type": "address"
        },
        {
          "internalType": "uint256",
          "name": "index",
          "type": "uint256"
        }
      ],
      "name": "tokenOfOwnerByIndex",
      "outputs": [
        {
          "internalType": "uint256",
          "name": "",
          "type": "uint256"
        }
      ],
      "stateMutability": "view",
      "type": "function"
    },
    {
      "inputs": [
        {
          "internalType": "uint256",
          "name": "tokenId",
          "type": "uint256"
        }
      ],
      "name": "tokenURI",
      "outputs": [
        {
          "internalType": "string",
          "name": "",
          "type": "string"
        }
      ],
      "stateMutability": "view",
      "type": "function"
    },
    {
      "inputs": [],
      "name": "totalSupply",
      "outputs": [
        {
          "internalType": "uint256",
          "name": "",
          "type": "uint256"
        }
      ],
      "stateMutability": "view",
      "type": "function"
    },
    {
      "inputs": [
        {
          "internalType": "address",
          "name": "from",
          "type": "address"
        },
        {
          "internalType": "address",
          "name": "to",
          "type": "address"
        },
        {
          "internalType": "uint256",
          "name": "tokenId",
          "type": "uint256"
        }
      ],
      "name": "transferFrom",
      "outputs": [],
      "stateMutability": "nonpayable",
      "type": "function"
    },
    {
      "inputs": [
        {
          "internalType": "address",
          "name": "newOwner",
          "type": "address"
        }
      ],
      "name": "transferOwnership",
      "outputs": [],
      "stateMutability": "nonpayable",
      "type": "function"
    },
    {
      "inputs": [],
      "name": "unpause",
      "outputs": [],
      "stateMutability": "nonpayable",
      "type": "function"
    }
  ],
  "bytecode": "0x60806040523480156200001157600080fd5b50604051620051cc380380620051cc833981810160405281019062000037919062000746565b6040518060400160405280600a81526020017f5953545241546f6b656e000000000000000000000000000000000000000000008152506040518060400160405280600581526020017f59535452410000000000000000000000000000000000000000000000000000008152508160029080519060200190620000bb929190620004b0565b508060039080519060200190620000d4929190620004b0565b5050506000600d60006101000a81548160ff02191690831515021790555062000112620001066200015460201b60201c565b6200015c60201b60201c565b62000133620001266200022260201b60201c565b836200024c60201b60201c565b80601090805190602001906200014b929190620004b0565b5050506200099e565b600033905090565b6000600d60019054906101000a900473ffffffffffffffffffffffffffffffffffffffff16905081600d60016101000a81548173ffffffffffffffffffffffffffffffffffffffff021916908373ffffffffffffffffffffffffffffffffffffffff1602179055508173ffffffffffffffffffffffffffffffffffffffff168173ffffffffffffffffffffffffffffffffffffffff167f8be0079c531659141344cd1fd0a4f28419497f9722a3daafe3b4186f6b6457e060405160405180910390a35050565b6000600d60019054906101000a900473ffffffffffffffffffffffffffffffffffffffff16905090565b6200025c6200027260201b60201c565b6200026e82826200030360201b60201c565b5050565b620002826200015460201b60201c565b73ffffffffffffffffffffffffffffffffffffffff16620002a86200022260201b60201c565b73ffffffffffffffffffffffffffffffffffffffff161462000301576040517f08c379a0000000000000000000000000000000000000000000000000000000008152600401620002f8906200080d565b60405180910390fd5b565b62000313620004a660201b60201c565b6bffffffffffffffffffffffff16816bffffffffffffffffffffffff16111562000374576040517f08c379a00000000000000000000000000000000000000000000000000000000081526004016200036b90620008a5565b60405180910390fd5b600073ffffffffffffffffffffffffffffffffffffffff168273ffffffffffffffffffffffffffffffffffffffff161415620003e7576040517f08c379a0000000000000000000000000000000000000000000000000000000008152600401620003de9062000917565b60405180910390fd5b60405180604001604052808373ffffffffffffffffffffffffffffffffffffffff168152602001826bffffffffffffffffffffffff168152506000808201518160000160006101000a81548173ffffffffffffffffffffffffffffffffffffffff021916908373ffffffffffffffffffffffffffffffffffffffff16021790555060208201518160000160146101000a8154816bffffffffffffffffffffffff02191690836bffffffffffffffffffffffff1602179055509050505050565b6000612710905090565b828054620004be9062000968565b90600052602060002090601f016020900481019282620004e257600085556200052e565b82601f10620004fd57805160ff19168380011785556200052e565b828001600101855582156200052e579182015b828111156200052d57825182559160200191906001019062000510565b5b5090506200053d919062000541565b5090565b5b808211156200055c57600081600090555060010162000542565b5090565b6000604051905090565b600080fd5b600080fd5b60006bffffffffffffffffffffffff82169050919050565b620005978162000574565b8114620005a357600080fd5b50565b600081519050620005b7816200058c565b92915050565b600080fd5b600080fd5b6000601f19601f8301169050919050565b7f4e487b7100000000000000000000000000000000000000000000000000000000600052604160045260246000fd5b6200061282620005c7565b810181811067ffffffffffffffff82111715620006345762000633620005d8565b5b80604052505050565b60006200064962000560565b905062000657828262000607565b919050565b600067ffffffffffffffff8211156200067a5762000679620005d8565b5b6200068582620005c7565b9050602081019050919050565b60005b83811015620006b257808201518184015260208101905062000695565b83811115620006c2576000848401525b50505050565b6000620006df620006d9846200065c565b6200063d565b905082815260208101848484011115620006fe57620006fd620005c2565b5b6200070b84828562000692565b509392505050565b600082601f8301126200072b576200072a620005bd565b5b81516200073d848260208601620006c8565b91505092915050565b6000806040838503121562000760576200075f6200056a565b5b60006200077085828601620005a6565b925050602083015167ffffffffffffffff8111156200079457620007936200056f565b5b620007a28582860162000713565b9150509250929050565b600082825260208201905092915050565b7f4f776e61626c653a2063616c6c6572206973206e6f7420746865206f776e6572600082015250565b6000620007f5602083620007ac565b91506200080282620007bd565b602082019050919050565b600060208201905081810360008301526200082881620007e6565b9050919050565b7f455243323938313a20726f79616c7479206665652077696c6c2065786365656460008201527f2073616c65507269636500000000000000000000000000000000000000000000602082015250565b60006200088d602a83620007ac565b91506200089a826200082f565b604082019050919050565b60006020820190508181036000830152620008c0816200087e565b9050919050565b7f455243323938313a20696e76616c696420726563656976657200000000000000600082015250565b6000620008ff601983620007ac565b91506200090c82620008c7565b602082019050919050565b600060208201905081810360008301526200093281620008f0565b9050919050565b7f4e487b7100000000000000000000000000000000000000000000000000000000600052602260045260246000fd5b600060028204905060018216806200098157607f821691505b6020821081141562000998576200099762000939565b5b50919050565b61481e80620009ae6000396000f3fe608060405234801561001057600080fd5b50600436106101da5760003560e01c80636352211e11610104578063a22cb465116100a2578063d547cfb711610071578063d547cfb71461052c578063e8a3d4851461054a578063e985e9c514610568578063f2fde38b14610598576101da565b8063a22cb465146104a8578063b88d4fde146104c4578063c87b56dd146104e0578063d204c45e14610510576101da565b80638456cb59116100de5780638456cb59146104465780638da5cb5b14610450578063938e3d7b1461046e57806395d89b411461048a576101da565b80636352211e146103dc57806370a082311461040c578063715018a61461043c576101da565b80632a55205a1161017c57806342966c681161014b57806342966c68146103565780634f6ccce71461037257806355f804b3146103a25780635c975abb146103be576101da565b80632a55205a146102cf5780632f745c59146103005780633f4ba83a1461033057806342842e0e1461033a576101da565b8063081812fc116101b8578063081812fc14610249578063095ea7b31461027957806318160ddd1461029557806323b872dd146102b3576101da565b806301ffc9a7146101df57806302fa7c471461020f57806306fdde031461022b575b600080fd5b6101f960048036038101906101f49190613172565b6105b4565b60405161020691906131ba565b60405180910390f35b61022960048036038101906102249190613277565b6105c6565b005b6102336105dc565b6040516102409190613350565b60405180910390f35b610263600480360381019061025e91906133a8565b61066e565b60405161027091906133e4565b60405180910390f35b610293600480360381019061028e91906133ff565b6106b4565b005b61029d6107cc565b6040516102aa919061344e565b60405180910390f35b6102cd60048036038101906102c89190613469565b6107d9565b005b6102e960048036038101906102e491906134bc565b610839565b6040516102f79291906134fc565b60405180910390f35b61031a600480360381019061031591906133ff565b610a24565b604051610327919061344e565b60405180910390f35b610338610ac9565b005b610354600480360381019061034f9190613469565b610adb565b005b610370600480360381019061036b91906133a8565b610afb565b005b61038c600480360381019061038791906133a8565b610b57565b604051610399919061344e565b60405180910390f35b6103bc60048036038101906103b7919061365a565b610bc8565b005b6103c6610bea565b6040516103d391906131ba565b60405180910390f35b6103f660048036038101906103f191906133a8565b610c01565b60405161040391906133e4565b60405180910390f35b610426600480360381019061042191906136a3565b610c88565b604051610433919061344e565b60405180910390f35b610444610d40565b005b61044e610d54565b005b610458610d66565b60405161046591906133e4565b60405180910390f35b61048860048036038101906104839190613730565b610d90565b005b610492610dae565b60405161049f9190613350565b60405180910390f35b6104c260048036038101906104bd91906137a9565b610e40565b005b6104de60048036038101906104d9919061388a565b610e56565b005b6104fa60048036038101906104f591906133a8565b610eb8565b6040516105079190613350565b60405180910390f35b61052a6004803603810190610525919061390d565b610eca565b005b610534610f0b565b6040516105419190613350565b60405180910390f35b610552610f99565b60405161055f9190613350565b60405180910390f35b610582600480360381019061057d9190613969565b611027565b60405161058f91906131ba565b60405180910390f35b6105b260048036038101906105ad91906136a3565b6110bb565b005b60006105bf8261113f565b9050919050565b6105ce6111b9565b6105d88282611237565b5050565b6060600280546105eb906139d8565b80601f0160208091040260200160405190810160405280929190818152602001828054610617906139d8565b80156106645780601f1061063957610100808354040283529160200191610664565b820191906000526020600020905b81548152906001019060200180831161064757829003601f168201915b5050505050905090565b6000610679826113cc565b6006600083815260200190815260200160002060009054906101000a900473ffffffffffffffffffffffffffffffffffffffff169050919050565b60006106bf82610c01565b90508073ffffffffffffffffffffffffffffffffffffffff168373ffffffffffffffffffffffffffffffffffffffff161415610730576040517f08c379a000000000000000000000000000000000000000000000000000000000815260040161072790613a7c565b60405180910390fd5b8073ffffffffffffffffffffffffffffffffffffffff1661074f611417565b73ffffffffffffffffffffffffffffffffffffffff16148061077e575061077d81610778611417565b611027565b5b6107bd576040517f08c379a00000000000000000000000000000000000000000000000000000000081526004016107b490613b0e565b60405180910390fd5b6107c7838361141f565b505050565b6000600a80549050905090565b6107ea6107e4611417565b826114d8565b610829576040517f08c379a000000000000000000000000000000000000000000000000000000000815260040161082090613ba0565b60405180910390fd5b61083483838361156d565b505050565b6000806000600160008681526020019081526020016000206040518060400160405290816000820160009054906101000a900473ffffffffffffffffffffffffffffffffffffffff1673ffffffffffffffffffffffffffffffffffffffff1673ffffffffffffffffffffffffffffffffffffffff1681526020016000820160149054906101000a90046bffffffffffffffffffffffff166bffffffffffffffffffffffff166bffffffffffffffffffffffff16815250509050600073ffffffffffffffffffffffffffffffffffffffff16816000015173ffffffffffffffffffffffffffffffffffffffff1614156109cf5760006040518060400160405290816000820160009054906101000a900473ffffffffffffffffffffffffffffffffffffffff1673ffffffffffffffffffffffffffffffffffffffff1673ffffffffffffffffffffffffffffffffffffffff1681526020016000820160149054906101000a90046bffffffffffffffffffffffff166bffffffffffffffffffffffff166bffffffffffffffffffffffff168152505090505b60006109d9611867565b6bffffffffffffffffffffffff1682602001516bffffffffffffffffffffffff1686610a059190613bef565b610a0f9190613c78565b90508160000151819350935050509250929050565b6000610a2f83610c88565b8210610a70576040517f08c379a0000000000000000000000000000000000000000000000000000000008152600401610a6790613d1b565b60405180910390fd5b600860008473ffffffffffffffffffffffffffffffffffffffff1673ffffffffffffffffffffffffffffffffffffffff168152602001908152602001600020600083815260200190815260200160002054905092915050565b610ad16111b9565b610ad9611871565b565b610af683838360405180602001604052806000815250610e56565b505050565b610b0c610b06611417565b826114d8565b610b4b576040517f08c379a0000000000000000000000000000000000000000000000000000000008152600401610b4290613ba0565b60405180910390fd5b610b54816118d4565b50565b6000610b616107cc565b8210610ba2576040517f08c379a0000000000000000000000000000000000000000000000000000000008152600401610b9990613dad565b60405180910390fd5b600a8281548110610bb657610bb5613dcd565b5b90600052602060002001549050919050565b610bd06111b9565b80600f9080519060200190610be6929190612f9d565b5050565b6000600d60009054906101000a900460ff16905090565b600080610c0d836118e0565b9050600073ffffffffffffffffffffffffffffffffffffffff168173ffffffffffffffffffffffffffffffffffffffff161415610c7f576040517f08c379a0000000000000000000000000000000000000000000000000000000008152600401610c7690613e48565b60405180910390fd5b80915050919050565b60008073ffffffffffffffffffffffffffffffffffffffff168273ffffffffffffffffffffffffffffffffffffffff161415610cf9576040517f08c379a0000000000000000000000000000000000000000000000000000000008152600401610cf090613eda565b60405180910390fd5b600560008373ffffffffffffffffffffffffffffffffffffffff1673ffffffffffffffffffffffffffffffffffffffff168152602001908152602001600020549050919050565b610d486111b9565b610d52600061191d565b565b610d5c6111b9565b610d646119e3565b565b6000600d60019054906101000a900473ffffffffffffffffffffffffffffffffffffffff16905090565b610d986111b9565b818160109190610da9929190613023565b505050565b606060038054610dbd906139d8565b80601f0160208091040260200160405190810160405280929190818152602001828054610de9906139d8565b8015610e365780601f10610e0b57610100808354040283529160200191610e36565b820191906000526020600020905b815481529060010190602001808311610e1957829003601f168201915b5050505050905090565b610e52610e4b611417565b8383611a46565b5050565b610e67610e61611417565b836114d8565b610ea6576040517f08c379a0000000000000000000000000000000000000000000000000000000008152600401610e9d90613ba0565b60405180910390fd5b610eb284848484611bb3565b50505050565b6060610ec382611c0f565b9050919050565b610ed26111b9565b610eda611d22565b6000610ee6600e611d6c565b9050610ef2600e611d7a565b610efc8382611d90565b610f068183611dae565b505050565b600f8054610f18906139d8565b80601f0160208091040260200160405190810160405280929190818152602001828054610f44906139d8565b8015610f915780601f10610f6657610100808354040283529160200191610f91565b820191906000526020600020905b815481529060010190602001808311610f7457829003601f168201915b505050505081565b60108054610fa6906139d8565b80601f0160208091040260200160405190810160405280929190818152602001828054610fd2906139d8565b801561101f5780601f10610ff45761010080835404028352916020019161101f565b820191906000526020600020905b81548152906001019060200180831161100257829003601f168201915b505050505081565b6000600760008473ffffffffffffffffffffffffffffffffffffffff1673ffffffffffffffffffffffffffffffffffffffff16815260200190815260200160002060008373ffffffffffffffffffffffffffffffffffffffff1673ffffffffffffffffffffffffffffffffffffffff16815260200190815260200160002060009054906101000a900460ff16905092915050565b6110c36111b9565b600073ffffffffffffffffffffffffffffffffffffffff168173ffffffffffffffffffffffffffffffffffffffff161415611133576040517f08c379a000000000000000000000000000000000000000000000000000000000815260040161112a90613f6c565b60405180910390fd5b61113c8161191d565b50565b60007f780e9d63000000000000000000000000000000000000000000000000000000007bffffffffffffffffffffffffffffffffffffffffffffffffffffffff1916827bffffffffffffffffffffffffffffffffffffffffffffffffffffffff191614806111b257506111b182611e22565b5b9050919050565b6111c1611417565b73ffffffffffffffffffffffffffffffffffffffff166111df610d66565b73ffffffffffffffffffffffffffffffffffffffff1614611235576040517f08c379a000000000000000000000000000000000000000000000000000000000815260040161122c90613fd8565b60405180910390fd5b565b61123f611867565b6bffffffffffffffffffffffff16816bffffffffffffffffffffffff16111561129d576040517f08c379a00000000000000000000000000000000000000000000000000000000081526004016112949061406a565b60405180910390fd5b600073ffffffffffffffffffffffffffffffffffffffff168273ffffffffffffffffffffffffffffffffffffffff16141561130d576040517f08c379a0000000000000000000000000000000000000000000000000000000008152600401611304906140d6565b60405180910390fd5b60405180604001604052808373ffffffffffffffffffffffffffffffffffffffff168152602001826bffffffffffffffffffffffff168152506000808201518160000160006101000a81548173ffffffffffffffffffffffffffffffffffffffff021916908373ffffffffffffffffffffffffffffffffffffffff16021790555060208201518160000160146101000a8154816bffffffffffffffffffffffff02191690836bffffffffffffffffffffffff1602179055509050505050565b6113d581611e34565b611414576040517f08c379a000000000000000000000000000000000000000000000000000000000815260040161140b90613e48565b60405180910390fd5b50565b600033905090565b816006600083815260200190815260200160002060006101000a81548173ffffffffffffffffffffffffffffffffffffffff021916908373ffffffffffffffffffffffffffffffffffffffff160217905550808273ffffffffffffffffffffffffffffffffffffffff1661149283610c01565b73ffffffffffffffffffffffffffffffffffffffff167f8c5be1e5ebec7d5bd14f71427d1e84f3dd0314c0f7b2291e5b200ac8c7c3b92560405160405180910390a45050565b6000806114e483610c01565b90508073ffffffffffffffffffffffffffffffffffffffff168473ffffffffffffffffffffffffffffffffffffffff16148061152657506115258185611027565b5b8061156457508373ffffffffffffffffffffffffffffffffffffffff1661154c8461066e565b73ffffffffffffffffffffffffffffffffffffffff16145b91505092915050565b8273ffffffffffffffffffffffffffffffffffffffff1661158d82610c01565b73ffffffffffffffffffffffffffffffffffffffff16146115e3576040517f08c379a00000000000000000000000000000000000000000000000000000000081526004016115da90614168565b60405180910390fd5b600073ffffffffffffffffffffffffffffffffffffffff168273ffffffffffffffffffffffffffffffffffffffff161415611653576040517f08c379a000000000000000000000000000000000000000000000000000000000815260040161164a906141fa565b60405180910390fd5b6116608383836001611e75565b8273ffffffffffffffffffffffffffffffffffffffff1661168082610c01565b73ffffffffffffffffffffffffffffffffffffffff16146116d6576040517f08c379a00000000000000000000000000000000000000000000000000000000081526004016116cd90614168565b60405180910390fd5b6006600082815260200190815260200160002060006101000a81549073ffffffffffffffffffffffffffffffffffffffff02191690556001600560008573ffffffffffffffffffffffffffffffffffffffff1673ffffffffffffffffffffffffffffffffffffffff168152602001908152602001600020600082825403925050819055506001600560008473ffffffffffffffffffffffffffffffffffffffff1673ffffffffffffffffffffffffffffffffffffffff16815260200190815260200160002060008282540192505081905550816004600083815260200190815260200160002060006101000a81548173ffffffffffffffffffffffffffffffffffffffff021916908373ffffffffffffffffffffffffffffffffffffffff160217905550808273ffffffffffffffffffffffffffffffffffffffff168473ffffffffffffffffffffffffffffffffffffffff167fddf252ad1be2c89b69c2b068fc378daa952ba7f163c4a11628f55a4df523b3ef60405160405180910390a46118628383836001611e8f565b505050565b6000612710905090565b611879611e95565b6000600d60006101000a81548160ff0219169083151502179055507f5db9ee0a495bf2e6ff9c91a7834c1ba4fdd244a5e8aa4e537bd38aeae4b073aa6118bd611417565b6040516118ca91906133e4565b60405180910390a1565b6118dd81611ede565b50565b60006004600083815260200190815260200160002060009054906101000a900473ffffffffffffffffffffffffffffffffffffffff169050919050565b6000600d60019054906101000a900473ffffffffffffffffffffffffffffffffffffffff16905081600d60016101000a81548173ffffffffffffffffffffffffffffffffffffffff021916908373ffffffffffffffffffffffffffffffffffffffff1602179055508173ffffffffffffffffffffffffffffffffffffffff168173ffffffffffffffffffffffffffffffffffffffff167f8be0079c531659141344cd1fd0a4f28419497f9722a3daafe3b4186f6b6457e060405160405180910390a35050565b6119eb611d22565b6001600d60006101000a81548160ff0219169083151502179055507f62e78cea01bee320cd4e420270b5ea74000d11b0c9f74754ebdbfc544b05a258611a2f611417565b604051611a3c91906133e4565b60405180910390a1565b8173ffffffffffffffffffffffffffffffffffffffff168373ffffffffffffffffffffffffffffffffffffffff161415611ab5576040517f08c379a0000000000000000000000000000000000000000000000000000000008152600401611aac90614266565b60405180910390fd5b80600760008573ffffffffffffffffffffffffffffffffffffffff1673ffffffffffffffffffffffffffffffffffffffff16815260200190815260200160002060008473ffffffffffffffffffffffffffffffffffffffff1673ffffffffffffffffffffffffffffffffffffffff16815260200190815260200160002060006101000a81548160ff0219169083151502179055508173ffffffffffffffffffffffffffffffffffffffff168373ffffffffffffffffffffffffffffffffffffffff167f17307eab39ab6107e8899845ad3d59bd9653f200f220920489ca2b5937696c3183604051611ba691906131ba565b60405180910390a3505050565b611bbe84848461156d565b611bca84848484611f31565b611c09576040517f08c379a0000000000000000000000000000000000000000000000000000000008152600401611c00906142f8565b60405180910390fd5b50505050565b6060611c1a826113cc565b6000600c60008481526020019081526020016000208054611c3a906139d8565b80601f0160208091040260200160405190810160405280929190818152602001828054611c66906139d8565b8015611cb35780601f10611c8857610100808354040283529160200191611cb3565b820191906000526020600020905b815481529060010190602001808311611c9657829003601f168201915b505050505090506000611cc46120c8565b9050600081511415611cda578192505050611d1d565b600082511115611d0f578082604051602001611cf7929190614354565b60405160208183030381529060405292505050611d1d565b611d188461215a565b925050505b919050565b611d2a610bea565b15611d6a576040517f08c379a0000000000000000000000000000000000000000000000000000000008152600401611d61906143c4565b60405180910390fd5b565b600081600001549050919050565b6001816000016000828254019250508190555050565b611daa8282604051806020016040528060008152506121c2565b5050565b611db782611e34565b611df6576040517f08c379a0000000000000000000000000000000000000000000000000000000008152600401611ded90614456565b60405180910390fd5b80600c60008481526020019081526020016000209080519060200190611e1d929190612f9d565b505050565b6000611e2d8261221d565b9050919050565b60008073ffffffffffffffffffffffffffffffffffffffff16611e56836118e0565b73ffffffffffffffffffffffffffffffffffffffff1614159050919050565b611e7d611d22565b611e89848484846122ff565b50505050565b50505050565b611e9d610bea565b611edc576040517f08c379a0000000000000000000000000000000000000000000000000000000008152600401611ed3906144c2565b60405180910390fd5b565b611ee78161245f565b6000600c60008381526020019081526020016000208054611f07906139d8565b905014611f2e57600c60008281526020019081526020016000206000611f2d91906130a9565b5b50565b6000611f528473ffffffffffffffffffffffffffffffffffffffff16612474565b156120bb578373ffffffffffffffffffffffffffffffffffffffff1663150b7a02611f7b611417565b8786866040518563ffffffff1660e01b8152600401611f9d9493929190614537565b602060405180830381600087803b158015611fb757600080fd5b505af1925050508015611fe857506040513d601f19601f82011682018060405250810190611fe59190614598565b60015b61206b573d8060008114612018576040519150601f19603f3d011682016040523d82523d6000602084013e61201d565b606091505b50600081511415612063576040517f08c379a000000000000000000000000000000000000000000000000000000000815260040161205a906142f8565b60405180910390fd5b805181602001fd5b63150b7a0260e01b7bffffffffffffffffffffffffffffffffffffffffffffffffffffffff1916817bffffffffffffffffffffffffffffffffffffffffffffffffffffffff1916149150506120c0565b600190505b949350505050565b6060600f80546120d7906139d8565b80601f0160208091040260200160405190810160405280929190818152602001828054612103906139d8565b80156121505780601f1061212557610100808354040283529160200191612150565b820191906000526020600020905b81548152906001019060200180831161213357829003601f168201915b5050505050905090565b6060612165826113cc565b600061216f6120c8565b9050600081511161218f57604051806020016040528060008152506121ba565b8061219984612497565b6040516020016121aa929190614354565b6040516020818303038152906040525b915050919050565b6121cc838361256f565b6121d96000848484611f31565b612218576040517f08c379a000000000000000000000000000000000000000000000000000000000815260040161220f906142f8565b60405180910390fd5b505050565b60007f80ac58cd000000000000000000000000000000000000000000000000000000007bffffffffffffffffffffffffffffffffffffffffffffffffffffffff1916827bffffffffffffffffffffffffffffffffffffffffffffffffffffffff191614806122e857507f5b5e139f000000000000000000000000000000000000000000000000000000007bffffffffffffffffffffffffffffffffffffffffffffffffffffffff1916827bffffffffffffffffffffffffffffffffffffffffffffffffffffffff1916145b806122f857506122f78261278d565b5b9050919050565b61230b84848484612807565b600181111561234f576040517f08c379a000000000000000000000000000000000000000000000000000000000815260040161234690614637565b60405180910390fd5b6000829050600073ffffffffffffffffffffffffffffffffffffffff168573ffffffffffffffffffffffffffffffffffffffff161415612397576123928161292d565b6123d6565b8373ffffffffffffffffffffffffffffffffffffffff168573ffffffffffffffffffffffffffffffffffffffff16146123d5576123d48582612976565b5b5b600073ffffffffffffffffffffffffffffffffffffffff168473ffffffffffffffffffffffffffffffffffffffff1614156124195761241481612ae3565b612458565b8473ffffffffffffffffffffffffffffffffffffffff168473ffffffffffffffffffffffffffffffffffffffff1614612457576124568482612bb4565b5b5b5050505050565b61246881612c33565b61247181612d81565b50565b6000808273ffffffffffffffffffffffffffffffffffffffff163b119050919050565b6060600060016124a684612de0565b01905060008167ffffffffffffffff8111156124c5576124c461352f565b5b6040519080825280601f01601f1916602001820160405280156124f75781602001600182028036833780820191505090505b509050600082602001820190505b600115612564578080600190039150507f3031323334353637383961626364656600000000000000000000000000000000600a86061a8153600a858161254e5761254d613c49565b5b049450600085141561255f57612564565b612505565b819350505050919050565b600073ffffffffffffffffffffffffffffffffffffffff168273ffffffffffffffffffffffffffffffffffffffff1614156125df576040517f08c379a00000000000000000000000000000000000000000000000000000000081526004016125d6906146a3565b60405180910390fd5b6125e881611e34565b15612628576040517f08c379a000000000000000000000000000000000000000000000000000000000815260040161261f9061470f565b60405180910390fd5b612636600083836001611e75565b61263f81611e34565b1561267f576040517f08c379a00000000000000000000000000000000000000000000000000000000081526004016126769061470f565b60405180910390fd5b6001600560008473ffffffffffffffffffffffffffffffffffffffff1673ffffffffffffffffffffffffffffffffffffffff16815260200190815260200160002060008282540192505081905550816004600083815260200190815260200160002060006101000a81548173ffffffffffffffffffffffffffffffffffffffff021916908373ffffffffffffffffffffffffffffffffffffffff160217905550808273ffffffffffffffffffffffffffffffffffffffff16600073ffffffffffffffffffffffffffffffffffffffff167fddf252ad1be2c89b69c2b068fc378daa952ba7f163c4a11628f55a4df523b3ef60405160405180910390a4612789600083836001611e8f565b5050565b60007f2a55205a000000000000000000000000000000000000000000000000000000007bffffffffffffffffffffffffffffffffffffffffffffffffffffffff1916827bffffffffffffffffffffffffffffffffffffffffffffffffffffffff1916148061280057506127ff82612f33565b5b9050919050565b600181111561292757600073ffffffffffffffffffffffffffffffffffffffff168473ffffffffffffffffffffffffffffffffffffffff161461289b5780600560008673ffffffffffffffffffffffffffffffffffffffff1673ffffffffffffffffffffffffffffffffffffffff1681526020019081526020016000206000828254612893919061472f565b925050819055505b600073ffffffffffffffffffffffffffffffffffffffff168373ffffffffffffffffffffffffffffffffffffffff16146129265780600560008573ffffffffffffffffffffffffffffffffffffffff1673ffffffffffffffffffffffffffffffffffffffff168152602001908152602001600020600082825461291e9190614763565b925050819055505b5b50505050565b600a80549050600b600083815260200190815260200160002081905550600a81908060018154018082558091505060019003906000526020600020016000909190919091505550565b6000600161298384610c88565b61298d919061472f565b9050600060096000848152602001908152602001600020549050818114612a72576000600860008673ffffffffffffffffffffffffffffffffffffffff1673ffffffffffffffffffffffffffffffffffffffff168152602001908152602001600020600084815260200190815260200160002054905080600860008773ffffffffffffffffffffffffffffffffffffffff1673ffffffffffffffffffffffffffffffffffffffff168152602001908152602001600020600084815260200190815260200160002081905550816009600083815260200190815260200160002081905550505b6009600084815260200190815260200160002060009055600860008573ffffffffffffffffffffffffffffffffffffffff1673ffffffffffffffffffffffffffffffffffffffff16815260200190815260200160002060008381526020019081526020016000206000905550505050565b60006001600a80549050612af7919061472f565b90506000600b60008481526020019081526020016000205490506000600a8381548110612b2757612b26613dcd565b5b9060005260206000200154905080600a8381548110612b4957612b48613dcd565b5b906000526020600020018190555081600b600083815260200190815260200160002081905550600b600085815260200190815260200160002060009055600a805480612b9857612b976147b9565b5b6001900381819060005260206000200160009055905550505050565b6000612bbf83610c88565b905081600860008573ffffffffffffffffffffffffffffffffffffffff1673ffffffffffffffffffffffffffffffffffffffff168152602001908152602001600020600083815260200190815260200160002081905550806009600084815260200190815260200160002081905550505050565b6000612c3e82610c01565b9050612c4e816000846001611e75565b612c5782610c01565b90506006600083815260200190815260200160002060006101000a81549073ffffffffffffffffffffffffffffffffffffffff02191690556001600560008373ffffffffffffffffffffffffffffffffffffffff1673ffffffffffffffffffffffffffffffffffffffff168152602001908152602001600020600082825403925050819055506004600083815260200190815260200160002060006101000a81549073ffffffffffffffffffffffffffffffffffffffff021916905581600073ffffffffffffffffffffffffffffffffffffffff168273ffffffffffffffffffffffffffffffffffffffff167fddf252ad1be2c89b69c2b068fc378daa952ba7f163c4a11628f55a4df523b3ef60405160405180910390a4612d7d816000846001611e8f565b5050565b60016000828152602001908152602001600020600080820160006101000a81549073ffffffffffffffffffffffffffffffffffffffff02191690556000820160146101000a8154906bffffffffffffffffffffffff0219169055505050565b600080600090507a184f03e93ff9f4daa797ed6e38ed64bf6a1f0100000000000000008310612e3e577a184f03e93ff9f4daa797ed6e38ed64bf6a1f0100000000000000008381612e3457612e33613c49565b5b0492506040810190505b6d04ee2d6d415b85acef81000000008310612e7b576d04ee2d6d415b85acef81000000008381612e7157612e70613c49565b5b0492506020810190505b662386f26fc100008310612eaa57662386f26fc100008381612ea057612e9f613c49565b5b0492506010810190505b6305f5e1008310612ed3576305f5e1008381612ec957612ec8613c49565b5b0492506008810190505b6127108310612ef8576127108381612eee57612eed613c49565b5b0492506004810190505b60648310612f1b5760648381612f1157612f10613c49565b5b0492506002810190505b600a8310612f2a576001810190505b80915050919050565b60007f01ffc9a7000000000000000000000000000000000000000000000000000000007bffffffffffffffffffffffffffffffffffffffffffffffffffffffff1916827bffffffffffffffffffffffffffffffffffffffffffffffffffffffff1916149050919050565b828054612fa9906139d8565b90600052602060002090601f016020900481019282612fcb5760008555613012565b82601f10612fe457805160ff1916838001178555613012565b82800160010185558215613012579182015b82811115613011578251825591602001919060010190612ff6565b5b50905061301f91906130e9565b5090565b82805461302f906139d8565b90600052602060002090601f0160209004810192826130515760008555613098565b82601f1061306a57803560ff1916838001178555613098565b82800160010185558215613098579182015b8281111561309757823582559160200191906001019061307c565b5b5090506130a591906130e9565b5090565b5080546130b5906139d8565b6000825580601f106130c757506130e6565b601f0160209004906000526020600020908101906130e591906130e9565b5b50565b5b808211156131025760008160009055506001016130ea565b5090565b6000604051905090565b600080fd5b600080fd5b60007fffffffff0000000000000000000000000000000000000000000000000000000082169050919050565b61314f8161311a565b811461315a57600080fd5b50565b60008135905061316c81613146565b92915050565b60006020828403121561318857613187613110565b5b60006131968482850161315d565b91505092915050565b60008115159050919050565b6131b48161319f565b82525050565b60006020820190506131cf60008301846131ab565b92915050565b600073ffffffffffffffffffffffffffffffffffffffff82169050919050565b6000613200826131d5565b9050919050565b613210816131f5565b811461321b57600080fd5b50565b60008135905061322d81613207565b92915050565b60006bffffffffffffffffffffffff82169050919050565b61325481613233565b811461325f57600080fd5b50565b6000813590506132718161324b565b92915050565b6000806040838503121561328e5761328d613110565b5b600061329c8582860161321e565b92505060206132ad85828601613262565b9150509250929050565b600081519050919050565b600082825260208201905092915050565b60005b838110156132f15780820151818401526020810190506132d6565b83811115613300576000848401525b50505050565b6000601f19601f8301169050919050565b6000613322826132b7565b61332c81856132c2565b935061333c8185602086016132d3565b61334581613306565b840191505092915050565b6000602082019050818103600083015261336a8184613317565b905092915050565b6000819050919050565b61338581613372565b811461339057600080fd5b50565b6000813590506133a28161337c565b92915050565b6000602082840312156133be576133bd613110565b5b60006133cc84828501613393565b91505092915050565b6133de816131f5565b82525050565b60006020820190506133f960008301846133d5565b92915050565b6000806040838503121561341657613415613110565b5b60006134248582860161321e565b925050602061343585828601613393565b9150509250929050565b61344881613372565b82525050565b6000602082019050613463600083018461343f565b92915050565b60008060006060848603121561348257613481613110565b5b60006134908682870161321e565b93505060206134a18682870161321e565b92505060406134b286828701613393565b9150509250925092565b600080604083850312156134d3576134d2613110565b5b60006134e185828601613393565b92505060206134f285828601613393565b9150509250929050565b600060408201905061351160008301856133d5565b61351e602083018461343f565b9392505050565b600080fd5b600080fd5b7f4e487b7100000000000000000000000000000000000000000000000000000000600052604160045260246000fd5b61356782613306565b810181811067ffffffffffffffff821117156135865761358561352f565b5b80604052505050565b6000613599613106565b90506135a5828261355e565b919050565b600067ffffffffffffffff8211156135c5576135c461352f565b5b6135ce82613306565b9050602081019050919050565b82818337600083830152505050565b60006135fd6135f8846135aa565b61358f565b9050828152602081018484840111156136195761361861352a565b5b6136248482856135db565b509392505050565b600082601f83011261364157613640613525565b5b81356136518482602086016135ea565b91505092915050565b6000602082840312156136705761366f613110565b5b600082013567ffffffffffffffff81111561368e5761368d613115565b5b61369a8482850161362c565b91505092915050565b6000602082840312156136b9576136b8613110565b5b60006136c78482850161321e565b91505092915050565b600080fd5b600080fd5b60008083601f8401126136f0576136ef613525565b5b8235905067ffffffffffffffff81111561370d5761370c6136d0565b5b602083019150836001820283011115613729576137286136d5565b5b9250929050565b6000806020838503121561374757613746613110565b5b600083013567ffffffffffffffff81111561376557613764613115565b5b613771858286016136da565b92509250509250929050565b6137868161319f565b811461379157600080fd5b50565b6000813590506137a38161377d565b92915050565b600080604083850312156137c0576137bf613110565b5b60006137ce8582860161321e565b92505060206137df85828601613794565b9150509250929050565b600067ffffffffffffffff8211156138045761380361352f565b5b61380d82613306565b9050602081019050919050565b600061382d613828846137e9565b61358f565b9050828152602081018484840111156138495761384861352a565b5b6138548482856135db565b509392505050565b600082601f83011261387157613870613525565b5b813561388184826020860161381a565b91505092915050565b600080600080608085870312156138a4576138a3613110565b5b60006138b28782880161321e565b94505060206138c38782880161321e565b93505060406138d487828801613393565b925050606085013567ffffffffffffffff8111156138f5576138f4613115565b5b6139018782880161385c565b91505092959194509250565b6000806040838503121561392457613923613110565b5b60006139328582860161321e565b925050602083013567ffffffffffffffff81111561395357613952613115565b5b61395f8582860161362c565b9150509250929050565b600080604083850312156139805761397f613110565b5b600061398e8582860161321e565b925050602061399f8582860161321e565b9150509250929050565b7f4e487b7100000000000000000000000000000000000000000000000000000000600052602260045260246000fd5b600060028204905060018216806139f057607f821691505b60208210811415613a0457613a036139a9565b5b50919050565b7f4552433732313a20617070726f76616c20746f2063757272656e74206f776e6560008201527f7200000000000000000000000000000000000000000000000000000000000000602082015250565b6000613a666021836132c2565b9150613a7182613a0a565b604082019050919050565b60006020820190508181036000830152613a9581613a59565b9050919050565b7f4552433732313a20617070726f76652063616c6c6572206973206e6f7420746f60008201527f6b656e206f776e6572206f7220617070726f76656420666f7220616c6c000000602082015250565b6000613af8603d836132c2565b9150613b0382613a9c565b604082019050919050565b60006020820190508181036000830152613b2781613aeb565b9050919050565b7f4552433732313a2063616c6c6572206973206e6f7420746f6b656e206f776e6560008201527f72206f7220617070726f76656400000000000000000000000000000000000000602082015250565b6000613b8a602d836132c2565b9150613b9582613b2e565b604082019050919050565b60006020820190508181036000830152613bb981613b7d565b9050919050565b7f4e487b7100000000000000000000000000000000000000000000000000000000600052601160045260246000fd5b6000613bfa82613372565b9150613c0583613372565b9250817fffffffffffffffffffffffffffffffffffffffffffffffffffffffffffffffff0483118215151615613c3e57613c3d613bc0565b5b828202905092915050565b7f4e487b7100000000000000000000000000000000000000000000000000000000600052601260045260246000fd5b6000613c8382613372565b9150613c8e83613372565b925082613c9e57613c9d613c49565b5b828204905092915050565b7f455243373231456e756d657261626c653a206f776e657220696e646578206f7560008201527f74206f6620626f756e6473000000000000000000000000000000000000000000602082015250565b6000613d05602b836132c2565b9150613d1082613ca9565b604082019050919050565b60006020820190508181036000830152613d3481613cf8565b9050919050565b7f455243373231456e756d657261626c653a20676c6f62616c20696e646578206f60008201527f7574206f6620626f756e64730000000000000000000000000000000000000000602082015250565b6000613d97602c836132c2565b9150613da282613d3b565b604082019050919050565b60006020820190508181036000830152613dc681613d8a565b9050919050565b7f4e487b7100000000000000000000000000000000000000000000000000000000600052603260045260246000fd5b7f4552433732313a20696e76616c696420746f6b656e2049440000000000000000600082015250565b6000613e326018836132c2565b9150613e3d82613dfc565b602082019050919050565b60006020820190508181036000830152613e6181613e25565b9050919050565b7f4552433732313a2061646472657373207a65726f206973206e6f74206120766160008201527f6c6964206f776e65720000000000000000000000000000000000000000000000602082015250565b6000613ec46029836132c2565b9150613ecf82613e68565b604082019050919050565b60006020820190508181036000830152613ef381613eb7565b9050919050565b7f4f776e61626c653a206e6577206f776e657220697320746865207a65726f206160008201527f6464726573730000000000000000000000000000000000000000000000000000602082015250565b6000613f566026836132c2565b9150613f6182613efa565b604082019050919050565b60006020820190508181036000830152613f8581613f49565b9050919050565b7f4f776e61626c653a2063616c6c6572206973206e6f7420746865206f776e6572600082015250565b6000613fc26020836132c2565b9150613fcd82613f8c565b602082019050919050565b60006020820190508181036000830152613ff181613fb5565b9050919050565b7f455243323938313a20726f79616c7479206665652077696c6c2065786365656460008201527f2073616c65507269636500000000000000000000000000000000000000000000602082015250565b6000614054602a836132c2565b915061405f82613ff8565b604082019050919050565b6000602082019050818103600083015261408381614047565b9050919050565b7f455243323938313a20696e76616c696420726563656976657200000000000000600082015250565b60006140c06019836132c2565b91506140cb8261408a565b602082019050919050565b600060208201905081810360008301526140ef816140b3565b9050919050565b7f4552433732313a207472616e736665722066726f6d20696e636f72726563742060008201527f6f776e6572000000000000000000000000000000000000000000000000000000602082015250565b60006141526025836132c2565b915061415d826140f6565b604082019050919050565b6000602082019050818103600083015261418181614145565b9050919050565b7f4552433732313a207472616e7366657220746f20746865207a65726f2061646460008201527f7265737300000000000000000000000000000000000000000000000000000000602082015250565b60006141e46024836132c2565b91506141ef82614188565b604082019050919050565b60006020820190508181036000830152614213816141d7565b9050919050565b7f4552433732313a20617070726f766520746f2063616c6c657200000000000000600082015250565b60006142506019836132c2565b915061425b8261421a565b602082019050919050565b6000602082019050818103600083015261427f81614243565b9050919050565b7f4552433732313a207472616e7366657220746f206e6f6e20455243373231526560008201527f63656976657220696d706c656d656e7465720000000000000000000000000000602082015250565b60006142e26032836132c2565b91506142ed82614286565b604082019050919050565b60006020820190508181036000830152614311816142d5565b9050919050565b600081905092915050565b600061432e826132b7565b6143388185614318565b93506143488185602086016132d3565b80840191505092915050565b60006143608285614323565b915061436c8284614323565b91508190509392505050565b7f5061757361626c653a2070617573656400000000000000000000000000000000600082015250565b60006143ae6010836132c2565b91506143b982614378565b602082019050919050565b600060208201905081810360008301526143dd816143a1565b9050919050565b7f45524337323155524953746f726167653a2055524920736574206f66206e6f6e60008201527f6578697374656e7420746f6b656e000000000000000000000000000000000000602082015250565b6000614440602e836132c2565b915061444b826143e4565b604082019050919050565b6000602082019050818103600083015261446f81614433565b9050919050565b7f5061757361626c653a206e6f7420706175736564000000000000000000000000600082015250565b60006144ac6014836132c2565b91506144b782614476565b602082019050919050565b600060208201905081810360008301526144db8161449f565b9050919050565b600081519050919050565b600082825260208201905092915050565b6000614509826144e2565b61451381856144ed565b93506145238185602086016132d3565b61452c81613306565b840191505092915050565b600060808201905061454c60008301876133d5565b61455960208301866133d5565b614566604083018561343f565b818103606083015261457881846144fe565b905095945050505050565b60008151905061459281613146565b92915050565b6000602082840312156145ae576145ad613110565b5b60006145bc84828501614583565b91505092915050565b7f455243373231456e756d657261626c653a20636f6e736563757469766520747260008201527f616e7366657273206e6f7420737570706f727465640000000000000000000000602082015250565b60006146216035836132c2565b915061462c826145c5565b604082019050919050565b6000602082019050818103600083015261465081614614565b9050919050565b7f4552433732313a206d696e7420746f20746865207a65726f2061646472657373600082015250565b600061468d6020836132c2565b915061469882614657565b602082019050919050565b600060208201905081810360008301526146bc81614680565b9050919050565b7f4552433732313a20746f6b656e20616c7265616479206d696e74656400000000600082015250565b60006146f9601c836132c2565b9150614704826146c3565b602082019050919050565b60006020820190508181036000830152614728816146ec565b9050919050565b600061473a82613372565b915061474583613372565b92508282101561475857614757613bc0565b5b828203905092915050565b600061476e82613372565b915061477983613372565b9250827fffffffffffffffffffffffffffffffffffffffffffffffffffffffffffffffff038211156147ae576147ad613bc0565b5b828201905092915050565b7f4e487b7100000000000000000000000000000000000000000000000000000000600052603160045260246000fdfea264697066735822122005a35a2f98fdd58a668feed441787eef991d436f71578c5753fd97588d6bb49164736f6c63430008090033",
  "linkReferences": {},
  "deployedLinkReferences": {}
}